:100000000C9454000C9473000C9473000C947300C3
:100010000C9473000C9473000C9473000C94730094
:100020000C9473000C9473000C9473000C94730084
:100030000C9473000C9422030C9473000C947300C2
:100040000C9473000C9473000C9473000C94730064
:100050000C9473000C9473000C9473000C94730054
:100060000C9473000C9473000C9473000C94730044
:100070000C9473000C9473000C9473000C94730034
:100080000C9473000C9473000C947300B204CD04B0
:10009000BB04F6041A052A05370551055805540511
:1000A0005B055F058005710511241FBECFEFD0E40D
:1000B000DEBFCDBF11E0A0E0B1E0EAEFFDE000E07F
:1000C0000BBF02C007900D92A632B107D9F721E00D
:1000D000A6E2B1E001C01D92A035B207E1F70E948F
:1000E0008B050C94FB060C940000CF93DF93CDB7E7
:1000F000DEB781E00E949C000000DF91CF9108955F
:10010000CF93DF93CDB7DEB784E690E00E94400145
:1001100088E30E949C0086E00E949C008FE00E9481
:100120009C0081E00E949C008AE090E00E944001D7
:100130000000DF91CF910895CF93DF931F92CDB749
:10014000DEB7898385E290E025E230E0F901208185
:100150002E7FFC01208382E290E02981FC01208334
:1001600085E290E025E230E0F90120812260FC0187
:100170002083000085E290E025E230E0F901208153
:100180002D7FFC01208382E090E00E94400100006E
:100190000F90DF91CF910895CF93DF931F92CDB74A
:1001A000DEB7898385E290E025E230E0F901208125
:1001B0002160FC01208382E290E02981FC01208300
:1001C00085E290E025E230E0F90120812260FC0127
:1001D0002083000085E290E025E230E0F9012081F3
:1001E0002D7FFC01208381E090E00E94400100000F
:1001F0000F90DF91CF910895CF93DF9300D000D07F
:10020000CDB7DEB78A837C836B830E9475008A81B9
:10021000898311C0898191E0980F99830E942901F7
:100220008B819C819C012F5F3F4F3C832B83FC0182
:1002300080810E94CC008B819C81FC01808188237D
:1002400049F700000F900F900F900F90DF91CF9122
:100250000895CF93DF931F92CDB7DEB7898389814D
:10026000813128F4898181580E949C0004C08981D1
:1002700081550E949C0000000F90DF91CF9108955E
:10028000CF93DF9300D000D000D0CDB7DEB79E83F0
:100290008D831A82198213C01C821B8206C0000043
:1002A0008B819C8101969C838B838B819C81873081
:1002B0009340ACF389819A8101969A83898329813D
:1002C0003A818D819E812817390734F300002696E4
:1002D0000FB6F894DEBF0FBECDBFDF91CF9108956A
:1002E000CF93DF9300D01F92CDB7DEB789837B8396
:1002F0006A8389818A3031F48A819B81BC018DE0D7
:100300000E94700180EC90E0FC018081882F90E0D9
:1003100080729927892BB1F386EC90E02981FC014A
:10032000208380E090E00F900F900F90DF91CF91AD
:100330000895CF93DF9300D01F92CDB7DEB78983A6
:100340006A834B838B81882371F08A81282F30E068
:1003500081E090E002C0880F991F2A95E2F7982F5C
:100360008981892B0EC08A81282F30E081E090E0BE
:1003700002C0880F991F2A95E2F7982F90958981DE
:1003800089230F900F900F90DF91CF910895CF9315
:10039000DF9300D0CDB7DEB789836A838A81282FA7
:1003A00030E081E090E002C0880F991F2A95E2F7C3
:1003B000982F898189230F900F90DF91CF91089515
:1003C0000F931F93CF93DF93CDB7DEB708E210E012
:1003D00040E064E08FEF0E949901F8018083000003
:1003E00086E290E0FC018081809560E00E94C70178
:1003F000882311F081E3D3C086E290E0FC01808184
:10040000809561E00E94C701882311F084E3C7C092
:1004100086E290E0FC018081809562E00E94C70145
:10042000882311F087E3BBC086E290E0FC01808165
:10043000809563E00E94C701882311F08AE2AFC073
:1004400008E210E040E065E08FEF0E949901F801BA
:100450008083000086E290E0FC018081809560E06E
:100460000E94C701882311F082E399C086E290E0E0
:10047000FC018081809561E00E94C701882311F012
:1004800085E38DC086E290E0FC018081809562E08A
:100490000E94C701882311F088E381C086E290E0C2
:1004A000FC018081809563E00E94C701882311F0E0
:1004B00080E375C008E210E040E066E08FEF0E9444
:1004C0009901F8018083000086E290E0FC018081C0
:1004D000809560E00E94C701882311F083E35FC02C
:1004E00086E290E0FC018081809561E00E94C70176
:1004F000882311F086E353C086E290E0FC018081FE
:10050000809562E00E94C701882311F089E347C00B
:1005100086E290E0FC018081809563E00E94C70143
:10052000882311F083E23BC008E210E040E067E07E
:100530008FEF0E949901F8018083000086E290E02D
:10054000FC018081809560E00E94C701882311F042
:1005500081E425C086E290E0FC018081809561E025
:100560000E94C701882311F082E419C086E290E05E
:10057000FC018081809562E00E94C701882311F010
:1005800083E40DC086E290E0FC018081809563E009
:100590000E94C701882311F084E401C080E0DF914C
:1005A000CF911F910F910895CF93DF93CDB7DEB711
:1005B00081E890E02BE0FC01208388E890E02DE7C3
:1005C00030E0FC01318320838FE690E022E0FC01E3
:1005D000208384E890E0FC011182108280910E015A
:1005E00090910F01A0911001B0911101809327010A
:1005F00090932801A0932901B0932A018FE590E000
:100600002FE530E0F90120812068FC012083000003
:10061000DF91CF910895CF93DF93CDB7DEB781E817
:1006200090E0FC0110820000DF91CF910895CF93FC
:10063000DF93CDB7DEB781E0809326010000DF9124
:10064000CF9108951F920F9200905F000F92112496
:1006500000905B000F922F933F934F935F936F93A4
:100660007F938F939F93AF93BF93EF93FF93CF931A
:10067000DF93CDB7DEB78091270190912801A0913B
:100680002901B0912A010197A109B109809327019D
:1006900090932801A0932901B0932A01809127010A
:1006A00090912801A0912901B0912A01892B8A2BD0
:1006B0008B2B91F40E94170380910E0190910F01F2
:1006C000A0911001B091110180932701909328010E
:1006D000A0932901B0932A010000DF91CF91FF91EF
:1006E000EF91BF91AF919F918F917F916F915F91AA
:1006F0004F913F912F910F9000925B000F900092CD
:100700005F000F901F901895CF93DF9300D000D01B
:10071000CDB7DEB769837A838B839C8389819A8185
:10072000AB81BC8180930E0190930F01A0931001C7
:10073000B093110180910E0190910F01A0911001D1
:10074000B09111018093270190932801A093290172
:10075000B0932A0100000F900F900F900F90DF913F
:10076000CF910895CF93DF9300D0CDB7DEB79A83B2
:10077000898389819A81009719F0019731F00AC025
:1007800081E090E09A8389830AC081E090E09A83B7
:10079000898305C081E090E09A8389830000898184
:1007A0009A81009709F440C0019709F040C08091F8
:1007B0002B018823D9F5809112010E94290180E242
:1007C00090E00E94CC00809113010E94290180E2F8
:1007D00090E00E94CC008091120181508093120120
:1007E00080911201882319F480E180931201809195
:1007F000130181508093130180911301813118F40A
:1008000080E280931301809112010E94290183E20A
:1008100090E00E94CC00809113010E94290183E2A4
:1008200090E00E94CC0002C0000001C0000089815D
:100830009A810F900F90DF91CF910895CF93DF931E
:1008400000D01F92CDB7DEB79B838A8386E290E00B
:10085000FC0180818095837089838A819B818130AE
:10086000910571F082309105C1F0892B09F022C009
:1008700082E18093140182E090E09B838A831AC016
:100880008981823029F482E090E09B838A8312C0C0
:1008900081E090E09B838A830DC08981813029F4B7
:1008A00081E090E09B838A8304C082E090E09B8398
:1008B0008A8300008A819B818130910561F08230BA
:1008C0009105A9F0892B11F582E18093140182E151
:1008D0000E9429011BC080912B018823A1F482E092
:1008E00080931401809114010E9429010CC0809111
:1008F0002B01882351F482E180931401809114012B
:100900000E94290102C0000001C000008A819B8171
:100910000F900F900F90DF91CF910895CF93DF93B9
:1009200000D01F92CDB7DEB79B838A8386E290E02A
:10093000FC0180818095847089838A819B81092E46
:10094000000CAA0BBB0B40E050E026E030E0841B1B
:10095000950B2817390708F48FC08A5B9F4FFC015D
:100960000C94F20610922B0110922E0181E090E07F
:100970009B838A8382C081E080932B0189818430AC
:1009800039F410922E0183E090E09B838A8375C036
:1009900082E090E09B838A8370C010922B01898152
:1009A000843059F481E080932E0181E080932B0103
:1009B00083E090E09B838A8360C0909114018091D2
:1009C0001201981731F0909114018091130198173A
:1009D00041F481E080932B0184E090E09B838A8343
:1009E0004CC081E090E09B838A8347C0898184303A
:1009F00029F483E090E09B838A833FC080912E019D
:100A0000882319F082E090E002C081E090E09B83AF
:100A10008A8390912E0181E0992309F480E08093EC
:100A20002B0190912E0181E0992309F080E08093C1
:100A30002E0123C081E080932B018981843029F429
:100A400085E090E09B838A8318C084E090E09B83DC
:100A50008A8313C08981843029F485E090E09B83E8
:100A60008A830BC086E090E09B838A8306C081E086
:100A700090E09B838A8301C000008A819B81092EBC
:100A8000000CAA0BBB0B40E050E026E030E0841BDA
:100A9000950B2817390790F1835B9F4FFC010C944D
:100AA000F20610922B012FC081E080932B012BC006
:100AB00010922B0128C081E080932B0124C081E09B
:100AC00080932B0180912D018823E1F481E08093B4
:100AD0002D010E94750065E171E081E00E94FC003B
:100AE00011C010922B010E94750080E180931201C9
:100AF0008EE18093130110922D0105C0000003C008
:100B0000000001C000008A819B810F900F900F9020
:100B1000DF91CF9108950F931F93CF93DF93CDB7BC
:100B2000DEB72C970FB6F894DEBF0FBECDBF81E2C3
:100B300090E02FEFFC01208382E290E0FC01108224
:100B400084E290E02FEFFC01208385E290E0FC013D
:100B5000108287E290E0FC01108288E290E02FEFA3
:100B6000FC01208386E0E0E2F1E0DE0117960190CF
:100B70000D928A95E1F783E090E09C838B838FEF61
:100B80008D838AE08E8310922F0180E991E0A0E0AE
:100B9000B0E08093300190933101A0933201B09383
:100BA00033018091300190913101A0913201B091D7
:100BB00033018093340190933501A0933601B093B3
:100BC000370182EB93E090933901809338011092C2
:100BD0003A018AE090E0A0E0B0E080933B0190937E
:100BE0003C01A0933D01B0933E0180913B01909167
:100BF0003C01A0913D01B0913E0180933F01909353
:100C00004001A0934101B09342018EE194E09093A2
:100C1000440180934301109245018AE090E0A0E0F6
:100C2000B0E08093460190934701A0934801B093B0
:100C300049018091460190914701A0914801B091EE
:100C4000490180934A0190934B01A0934C01B093CA
:100C50004D018EE894E090934F0180934E018E8178
:100C6000082E000C990BAA0BBB0BBC01CD010E94F6
:100C700084030E94D4020E9480001A821982A2C0BA
:100C800089819A81880F991F9E012F5F3F4F820FA4
:100C9000931F0696FC0180819181FC01258136819C
:100CA0004781508589819A81880F991FBE016F5FA6
:100CB0007F4F860F971F0696FC0180819181FC0172
:100CC00081819281A381B481281739074A075B0784
:100CD00009F045C089819A81880F991F9E012F5F75
:100CE0003F4F820F931F0696FC010081118189817D
:100CF0009A81880F991F9E012F5F3F4F820F931F8C
:100D00000696FC0180819181FC01218532858981D3
:100D10009A81880F991FAE014F5F5F4F840F951F17
:100D20000696FC0180819181FC018081082E000CD7
:100D3000990BF9010995F801808389819A81880FBF
:100D4000991F9E012F5F3F4F820F931F0696FC0154
:100D500080819181FC01158216821782108689811B
:100D60009A81880F991F9E012F5F3F4F820F931F1B
:100D70000696FC016081718189819A81880F991F93
:100D80009E012F5F3F4F820F931F0696FC018081CB
:100D90009181FC0125813681478150858E81082E05
:100DA000000C990BAA0BBB0B820F931FA41FB51F3E
:100DB000FB0185839683A783B08789819A810196F9
:100DC0009A83898329813A818B819C8128173907ED
:100DD00008F456CF0000809126018823E1F3109299
:100DE00026014BCFEE0FFF1F0024001C0BBE079007
:0A0DF000F691E02D0994F894FFCF6E
:100DFA000000000200000000700100000000010075
:100E0A000000101E1247616D65204F766572210041
:060E1A002F013A01450121
:00000001FF
